{
  "contractName": "TaskContract",
  "abi": [
    {
      "anonymous": false,
      "inputs": [
        {
          "indexed": false,
          "internalType": "address",
          "name": "recipientAddress",
          "type": "address"
        },
        {
          "indexed": false,
          "internalType": "uint256",
          "name": "taskId",
          "type": "uint256"
        }
      ],
      "name": "AddTask",
      "type": "event"
    },
    {
      "anonymous": false,
      "inputs": [
        {
          "indexed": false,
          "internalType": "uint256",
          "name": "taskId",
          "type": "uint256"
        },
        {
          "indexed": false,
          "internalType": "bool",
          "name": "isDeleted",
          "type": "bool"
        }
      ],
      "name": "DeleteTask",
      "type": "event"
    },
    {
      "inputs": [
        {
          "internalType": "string",
          "name": "taskText",
          "type": "string"
        },
        {
          "internalType": "bool",
          "name": "isDeleted",
          "type": "bool"
        }
      ],
      "name": "addTask",
      "outputs": [],
      "stateMutability": "nonpayable",
      "type": "function"
    },
    {
      "inputs": [],
      "name": "getMyTasks",
      "outputs": [
        {
          "components": [
            {
              "internalType": "uint256",
              "name": "id",
              "type": "uint256"
            },
            {
              "internalType": "string",
              "name": "taskText",
              "type": "string"
            },
            {
              "internalType": "bool",
              "name": "isDeleted",
              "type": "bool"
            }
          ],
          "internalType": "struct TaskContract.Task[]",
          "name": "",
          "type": "tuple[]"
        }
      ],
      "stateMutability": "view",
      "type": "function"
    },
    {
      "inputs": [
        {
          "internalType": "uint256",
          "name": "taskId",
          "type": "uint256"
        },
        {
          "internalType": "bool",
          "name": "isDeleted",
          "type": "bool"
        }
      ],
      "name": "deleteTask",
      "outputs": [],
      "stateMutability": "nonpayable",
      "type": "function"
    }
  ],
  "bytecode": "0x608060405234801561001057600080fd5b50610e5f806100206000396000f3fe608060405234801561001057600080fd5b50600436106100415760003560e01c806320df4581146100465780636e13f81814610062578063aaba290714610080575b600080fd5b610060600480360381019061005b9190610751565b61009c565b005b61006a6101c5565b6040516100779190610966565b60405180910390f35b61009a600480360381019061009591906109b4565b6104bb565b005b60008080549050905060003390506000604051806060016040528084815260200186815260200185151581525090806001815401808255809150506001900390600052602060002090600302016000909190919091506000820151816000015560208201518160010190816101119190610c00565b5060408201518160020160006101000a81548160ff0219169083151502179055505050806001600084815260200190815260200160002060006101000a81548173ffffffffffffffffffffffffffffffffffffffff021916908373ffffffffffffffffffffffffffffffffffffffff1602179055507f1f54e1ba1832d428fbd7e7792beaf62b1fc5a382c207ffd614209c1413e94fda81836040516101b7929190610d22565b60405180910390a150505050565b60606000808054905067ffffffffffffffff8111156101e7576101e66105ee565b5b60405190808252806020026020018201604052801561022057816020015b61020d61059c565b8152602001906001900390816102055790505b5090506000805b600080549050811015610401573373ffffffffffffffffffffffffffffffffffffffff166001600083815260200190815260200160002060009054906101000a900473ffffffffffffffffffffffffffffffffffffffff1673ffffffffffffffffffffffffffffffffffffffff161480156102d8575060001515600082815481106102b5576102b4610d4b565b5b906000526020600020906003020160020160009054906101000a900460ff161515145b156103ee57600081815481106102f1576102f0610d4b565b5b90600052602060002090600302016040518060600160405290816000820154815260200160018201805461032490610a23565b80601f016020809104026020016040519081016040528092919081815260200182805461035090610a23565b801561039d5780601f106103725761010080835404028352916020019161039d565b820191906000526020600020905b81548152906001019060200180831161038057829003601f168201915b505050505081526020016002820160009054906101000a900460ff1615151515815250508383815181106103d4576103d3610d4b565b5b602002602001018190525081806103ea90610da9565b9250505b80806103f990610da9565b915050610227565b5060008167ffffffffffffffff81111561041e5761041d6105ee565b5b60405190808252806020026020018201604052801561045757816020015b61044461059c565b81526020019060019003908161043c5790505b50905060005b828110156104b15783818151811061047857610477610d4b565b5b602002602001015182828151811061049357610492610d4b565b5b602002602001018190525080806104a990610da9565b91505061045d565b5080935050505090565b3373ffffffffffffffffffffffffffffffffffffffff166001600084815260200190815260200160002060009054906101000a900473ffffffffffffffffffffffffffffffffffffffff1673ffffffffffffffffffffffffffffffffffffffff160361059857806000838154811061053657610535610d4b565b5b906000526020600020906003020160020160006101000a81548160ff0219169083151502179055507ff88a35c3d2016c409a46570b994a17b408dbc83c14a03f521512d50b85386d06828260405161058f929190610e00565b60405180910390a15b5050565b604051806060016040528060008152602001606081526020016000151581525090565b6000604051905090565b600080fd5b600080fd5b600080fd5b600080fd5b6000601f19601f8301169050919050565b7f4e487b7100000000000000000000000000000000000000000000000000000000600052604160045260246000fd5b610626826105dd565b810181811067ffffffffffffffff82111715610645576106446105ee565b5b80604052505050565b60006106586105bf565b9050610664828261061d565b919050565b600067ffffffffffffffff821115610684576106836105ee565b5b61068d826105dd565b9050602081019050919050565b82818337600083830152505050565b60006106bc6106b784610669565b61064e565b9050828152602081018484840111156106d8576106d76105d8565b5b6106e384828561069a565b509392505050565b600082601f830112610700576106ff6105d3565b5b81356107108482602086016106a9565b91505092915050565b60008115159050919050565b61072e81610719565b811461073957600080fd5b50565b60008135905061074b81610725565b92915050565b60008060408385031215610768576107676105c9565b5b600083013567ffffffffffffffff811115610786576107856105ce565b5b610792858286016106eb565b92505060206107a38582860161073c565b9150509250929050565b600081519050919050565b600082825260208201905092915050565b6000819050602082019050919050565b6000819050919050565b6107ec816107d9565b82525050565b600081519050919050565b600082825260208201905092915050565b60005b8381101561082c578082015181840152602081019050610811565b60008484015250505050565b6000610843826107f2565b61084d81856107fd565b935061085d81856020860161080e565b610866816105dd565b840191505092915050565b61087a81610719565b82525050565b600060608301600083015161089860008601826107e3565b50602083015184820360208601526108b08282610838565b91505060408301516108c56040860182610871565b508091505092915050565b60006108dc8383610880565b905092915050565b6000602082019050919050565b60006108fc826107ad565b61090681856107b8565b935083602082028501610918856107c9565b8060005b85811015610954578484038952815161093585826108d0565b9450610940836108e4565b925060208a0199505060018101905061091c565b50829750879550505050505092915050565b6000602082019050818103600083015261098081846108f1565b905092915050565b610991816107d9565b811461099c57600080fd5b50565b6000813590506109ae81610988565b92915050565b600080604083850312156109cb576109ca6105c9565b5b60006109d98582860161099f565b92505060206109ea8582860161073c565b9150509250929050565b7f4e487b7100000000000000000000000000000000000000000000000000000000600052602260045260246000fd5b60006002820490506001821680610a3b57607f821691505b602082108103610a4e57610a4d6109f4565b5b50919050565b60008190508160005260206000209050919050565b60006020601f8301049050919050565b600082821b905092915050565b600060088302610ab67fffffffffffffffffffffffffffffffffffffffffffffffffffffffffffffffff82610a79565b610ac08683610a79565b95508019841693508086168417925050509392505050565b6000819050919050565b6000610afd610af8610af3846107d9565b610ad8565b6107d9565b9050919050565b6000819050919050565b610b1783610ae2565b610b2b610b2382610b04565b848454610a86565b825550505050565b600090565b610b40610b33565b610b4b818484610b0e565b505050565b5b81811015610b6f57610b64600082610b38565b600181019050610b51565b5050565b601f821115610bb457610b8581610a54565b610b8e84610a69565b81016020851015610b9d578190505b610bb1610ba985610a69565b830182610b50565b50505b505050565b600082821c905092915050565b6000610bd760001984600802610bb9565b1980831691505092915050565b6000610bf08383610bc6565b9150826002028217905092915050565b610c09826107f2565b67ffffffffffffffff811115610c2257610c216105ee565b5b610c2c8254610a23565b610c37828285610b73565b600060209050601f831160018114610c6a5760008415610c58578287015190505b610c628582610be4565b865550610cca565b601f198416610c7886610a54565b60005b82811015610ca057848901518255600182019150602085019450602081019050610c7b565b86831015610cbd5784890151610cb9601f891682610bc6565b8355505b6001600288020188555050505b505050505050565b600073ffffffffffffffffffffffffffffffffffffffff82169050919050565b6000610cfd82610cd2565b9050919050565b610d0d81610cf2565b82525050565b610d1c816107d9565b82525050565b6000604082019050610d376000830185610d04565b610d446020830184610d13565b9392505050565b7f4e487b7100000000000000000000000000000000000000000000000000000000600052603260045260246000fd5b7f4e487b7100000000000000000000000000000000000000000000000000000000600052601160045260246000fd5b6000610db4826107d9565b91507fffffffffffffffffffffffffffffffffffffffffffffffffffffffffffffffff8203610de657610de5610d7a565b5b600182019050919050565b610dfa81610719565b82525050565b6000604082019050610e156000830185610d13565b610e226020830184610df1565b939250505056fea26469706673582212202248bbf3b3337dfb06f28ab17bafc30c513009f046b778e6e792e08f190de13c64736f6c63430008110033",
  "immutableReferences": {},
  "source": "// SPDX-License-Identifier: MIT\npragma solidity 0.8.17;\n\n/*\n  - values with 'memory' mark - for temporary data and\n      will be removed after function call, it's cheaper to use.\n  - with 'storage' mark - they will be saved betwen function calls,\n      expensive to use.\n*/\n/*\n  js object in solidity will be map or struct\n\n  tasks = [\n    { id: uint, taskText: string, isDeleted: bool }, ...\n  ]\n*/\n/*\n  Deploy - deployed contract address\n  ABI\n*/\n\ncontract TaskContract {\n  event AddTask(address recipientAddress, uint taskId);\n  event DeleteTask(uint taskId, bool isDeleted);\n  /*\n    js = { id: 0, taskText: 'clean', idDeleted: false}\n    solidity = Task(0, 'clean', false)\n  */\n  struct Task {\n    uint id;\n    string taskText;\n    bool isDeleted;\n  }\n\n  // tasks = [Task, Task, ...]; private - only in this function TaskContract\n  Task[] private tasks;\n\n  /*\n    Mapping taskId to address for each task ?? by calling taskToOwner ??\n    So I will see only my tasks, not others tasks.\n    Mapping two maps with tasks and with owners by id\n    Inner join\n  */\n  mapping(uint256 => address) taskToOwner;\n\n  /*\n    Function for calling it from React apps\n    string ?? memory ?? taskText\n    bool isDeleted\n    external - function without return\n  */\n  function addTask(string memory taskText, bool isDeleted) external {\n    uint taskId = tasks.length;\n    // msg - solidity global object, sender - address to where we are sending\n    address recipientAddress = msg.sender;\n    tasks.push(Task(taskId, taskText, isDeleted));\n    taskToOwner[taskId] = recipientAddress;\n    // Execute it in real blockChain ?\n    emit AddTask(recipientAddress, taskId);\n  }\n\n  /*\n    Get my tasks that are mine and not deleted\n    ??for external use in React??\n    view - ??\n    return(Task[] memory) - ??\n  */\n  function getMyTasks() external view returns (Task[] memory) {\n    // solidity we could specify size for array (Task[2] / Task[]2 / Task[](2))\n    Task[] memory temporary = new Task[](tasks.length);\n    uint counter = 0;\n\n    for (uint i = 0; i < tasks.length; i++) {\n      if (taskToOwner[i] == msg.sender && tasks[i].isDeleted == false) {\n        temporary[counter] = tasks[i];\n        counter++;\n      }\n    }\n\n    /*\n      We are sending only required amount of task.\n      Maybe it is cheaper to execute in blockchain then.\n    */\n    Task[] memory result = new Task[](counter);\n    for (uint i = 0; i < counter; i++) {\n      result[i] = temporary[i];\n    }\n\n    return result;\n  }\n\n  function deleteTask(uint taskId, bool isDeleted) external {\n    if (taskToOwner[taskId] == msg.sender) {\n      tasks[taskId].isDeleted = isDeleted;\n      // Execute it in real block chain ?\n      emit DeleteTask(taskId, isDeleted);\n    }\n  }\n}\n",
  "sourcePath": "/Users/nikita/js/solidity-todo/blockchain/contracts/TaskContract.sol",
  "compiler": {
    "name": "solc",
    "version": "0.8.17+commit.8df45f5f.Emscripten.clang"
  },
  "schemaVersion": "3.4.11",
  "updatedAt": "2022-11-27T23:03:40.677Z",
  "devdoc": {
    "kind": "dev",
    "methods": {},
    "version": 1
  },
  "userdoc": {
    "kind": "user",
    "methods": {},
    "version": 1
  }
}